:100000000C9435000C945D000C945D000C945D0024
:100010000C945D000C945D000C945D000C945D00EC
:100020000C945D000C945D000C945D000C945D00DC
:100030000C945D000C945D000C945D000C945D00CC
:100040000C9476040C945D000C94DD020C940F0368
:100050000C945D000C945D000C945D000C945D00AC
:100060000C945D000C945D003F0311241FBECFEF84
:10007000D8E0DEBFCDBF12E0A0E0B1E0E4E9FAE0F5
:1000800002C005900D92A638B107D9F723E0A6E883
:10009000B2E001C01D92AC32B207E1F710E0C5E357
:1000A000D0E004C02197FE010E944205C433D1076D
:1000B000C9F70E946D030C9448050C94000026E0DB
:1000C00040E855E260E070E086E892E00E94780245
:1000D00008953F924F925F926F927F928F929F927C
:1000E000AF92BF92CF92DF92EF92FF920F931F9346
:1000F000CF93DF93CDB7DEB7CC5AD2400FB6F8948A
:10010000DEBF0FBECDBFFE01319684EA92E0DF0173
:100110009C011D9221503040E1F70E94C004C75558
:10012000DD4F688379838A839B83C95AD24062E515
:1001300072E049EA51E0C955DD4F59834883C75AF7
:10014000D2400F2EFDE03F2EF02D8E010F551D4F9A
:100150000F2EF8EACF2EF1E0DF2EF02D0F2EF1E575
:10016000EF2EF2E0FF2EF02DCE010397CB55DD4FA1
:1001700099838883C55AD240D7018C91F60190812A
:10018000890220011124052C000C66087708F7016C
:10019000329796012A513109A7014E5051098181A8
:1001A000D9011D969C911D978902C00111244C0113
:1001B000990FAA08BB0890818C919802C001112464
:1001C000092E000CAA0BBB0B880D991DAA1DBB1D87
:1001D000480E591E6A1E7B1E32972A5131094E174E
:1001E0005F07E9F6FB012291BF01C955DD4FA881E8
:1001F000B981C75AD2408E91C955DD4FB983A883C2
:10020000C75AD240082E000C990B820F911D27FD72
:100210009A95092E000CAA0BBB0BF80120813181A5
:1002200042815381820F931FA41FB51F480E591E90
:100230006A1E7B1E40825182628273823A9433200E
:1002400021F0B1E0CB1AD1080AC0EDE0EE1AF108B6
:10025000FCE0CF0ED11C0F2EFDE03F2EF02D045000
:100260001109CB55DD4F28813981C55AD24002177B
:10027000130709F081CF0E94C0046B017C01C755B0
:10028000DD4F288139814A815B81C95AD240C21A27
:10029000D30AE40AF50AE0918602F091870202800F
:1002A000F381E02D42E150E062E572E086E892E001
:1002B00009952AE030E0B701A60186E892E00E94A5
:1002C0001C048E010F5F1F4F7E013BE5E31A3DEFDB
:1002D000F30A680144E3C40ED11CD8014D915D912D
:1002E0006D917D918D012AE030E086E892E00E94D8
:1002F0002E0469E086E892E00E94BB030C151D0500
:1003000061F76AE086E892E00E94BB038601CE14A2
:10031000DF04F9F6C455DD4F0FB6F894DEBF0FBE0B
:10032000CDBFDF91CF911F910F91FF90EF90DF90A4
:10033000CF90BF90AF909F908F907F906F905F9085
:100340004F903F900895FC01918D228D892F90E070
:10035000805C9F4F821B91098F7399270895FC0140
:10036000918D828D981731F0828DE80FF11D858D6A
:1003700090E008958FEF9FEF0895FC01918D828D9D
:10038000981761F0828DDF01A80FB11D5D968C91E9
:10039000928D9F5F9F73928F90E008958FEF9FEFF4
:1003A0000895FC01538D448D252F30E0842F90E07B
:1003B000821B930B541710F0CF9608950197089560
:1003C00085E393E0892B49F080E090E0892B29F0C8
:1003D0000E94350381110C9400000895FC01848D66
:1003E000DF01A80FB11DA35ABF4F2C91848D90E05F
:1003F00001968F739927848FA689B7892C93A0893A
:10040000B1898C9180648C93938D848D981306C0F0
:100410000288F389E02D80818F7D80830895EF929B
:10042000FF920F931F93CF93DF93EC0181E0888FAE
:100430009B8D8C8D981305C0E889F989808185FD95
:1004400024C0F62E0B8D10E00F5F1F4F0F73112786
:10045000E02E8C8DE8120CC00FB607FCFACFE889AD
:10046000F989808185FFF5CFCE010E94EE01F1CFA1
:100470008B8DFE01E80FF11DE35AFF4FF0820B8FC9
:10048000EA89FB898081806207C0EE89FF896083E9
:10049000E889F98980818064808381E090E0DF9140
:1004A000CF911F910F91FF90EF900895CF93DF931D
:1004B000EC01888D8823C9F0EA89FB89808185FD5C
:1004C00005C0A889B9898C9186FD0FC00FB607FCBD
:1004D000F5CF808185FFF2CFA889B9898C9185FFFE
:1004E000EDCFCE010E94EE01E7CFDF91CF910895CD
:1004F000CF92DF92EF92FF921F93CF93DF93EC01A5
:100500006A017B01122FE889F98982E08083411515
:10051000514E61057105B1F060E079E08DE390E046
:10052000A70196010E942005DA01C9010197A109DE
:10053000B109B695A795979587959C01211580E1FE
:100540003807A8F0E889F989108260E874E88EE13C
:1005500090E0A70196010E942005DA01C9010197E8
:10056000A109B109B695A795979587959C01EC854A
:10057000FD853083EE85FF852083188EEC89FD890B
:100580001083EA89FB89808180618083EA89FB8905
:10059000808188608083EA89FB898081806880838C
:1005A000EA89FB8980818F7D8083DF91CF911F91C4
:1005B000FF90EF90DF90CF9008951F920F920FB6AB
:1005C0000F9211242F938F939F93EF93FF93E091BA
:1005D0009602F09197028081E0919C02F0919D0239
:1005E00082FD12C0908180919F028F5F8F73209156
:1005F000A002821751F0E0919F02F0E0EA57FD4F10
:10060000958F80939F0201C08081FF91EF919F9110
:100610008F912F910F900FBE0F901F9018951F92E2
:100620000F920FB60F9211242F933F934F935F9326
:100630006F937F938F939F93AF93BF93EF93FF93AA
:1006400086E892E00E94EE01FF91EF91BF91AF9199
:100650009F918F917F916F915F914F913F912F91DA
:100660000F900FBE0F901F90189586E892E00E94A1
:10067000A30121E0892B09F420E0822F0895E6E808
:10068000F2E01382128288EE93E0A0E0B0E084836F
:100690009583A683B78389E692E09183808385EC76
:1006A00090E09587848784EC90E09787868780EC3C
:1006B00090E0918B808B81EC90E0938B828B82EC2D
:1006C00090E0958B848B86EC90E0978B868B118ED7
:1006D000128E138E148E089508950E94E5040E94D0
:1006E0006C030E945F00C0EED1E00E946900209779
:1006F000E1F30E94E001F9CFCF92DF92EF92FF92F7
:100700000F931F93CF93DF936C017A018B01C0E0AD
:10071000D0E0CE15DF0581F0D8016D918D01D601B5
:10072000ED91FC910190F081E02DC6010995892B96
:1007300011F02196EECF7E01C701DF91CF911F917D
:100740000F91FF90EF90DF90CF90089561157105A4
:1007500079F0FB0101900020E9F73197AF01461BCA
:10076000570BDC01ED91FC910280F381E02D09949F
:1007700080E090E00895DC01ED91FC910190F08122
:10078000E02D099467E772E00C94A6038F929F9284
:10079000AF92BF92EF92FF920F931F93CF93DF938D
:1007A000CDB7DEB7A1970FB6F894DEBF0FBECDBFB1
:1007B0007C01FA01CB0119A2223008F42AE08E0153
:1007C0000F5D1F4F822E912CA12CB12CBF01A501D2
:1007D00094010E942005F901CA01015011096A30F3
:1007E00010F4605D01C0695CD8016C93232B242B4D
:1007F000252B61F7B801C7010E94A603A1960FB689
:10080000F894DEBF0FBECDBFDF91CF911F910F9146
:10081000FF90EF90BF90AF909F908F90089521151B
:10082000310541F4DC01ED91FC910190F081E02D66
:10083000642F09940C94C6030F931F93CF93DF93F7
:10084000EC010E940F048C01CE010E94C203800FB4
:10085000911FDF91CF911F910F910895CF92DF9259
:10086000EF92FF920F931F93CF93DF9321153105E2
:1008700081F4DC01ED91FC910190F081E02D642F79
:10088000DF91CF911F910F91FF90EF90DF90CF906C
:1008900009942A30310501F577FF1DC06A017B01FB
:1008A000EC016DE20E94BB038C0144275527BA017D
:1008B0004C195D096E097F092AE0CE010E94C6032A
:1008C000800F911FDF91CF911F910F91FF90EF90BB
:1008D000DF90CF9008952AE0DF91CF911F910F9183
:1008E000FF90EF90DF90CF900C94C6031F920F9271
:1008F0000FB60F9211242F933F938F939F93AF9333
:10090000BF938091240390912503A0912603B09179
:1009100027033091230323E0230F2D3720F4019682
:10092000A11DB11D05C026E8230F0296A11DB11D12
:10093000209323038093240390932503A0932603FD
:10094000B09327038091280390912903A0912A0353
:10095000B0912B030196A11DB11D809328039093A4
:100960002903A0932A03B0932B03BF91AF919F91CA
:100970008F913F912F910F900FBE0F901F90189560
:100980003FB7F8948091280390912903A0912A03FE
:10099000B0912B0326B5A89B05C02F3F19F00196F7
:1009A000A11DB11D3FBFBA2FA92F982F8827820FF5
:1009B000911DA11DB11DBC01CD0142E0660F771F45
:1009C000881F991F4A95D1F70895789484B582605D
:1009D00084BD84B5816084BD85B5826085BD85B5E3
:1009E000816085BDEEE6F0E0808181608083E1E892
:1009F000F0E01082808182608083808181608083CA
:100A0000E0E8F0E0808181608083E1EBF0E08081CC
:100A100084608083E0EBF0E0808181608083EAE79E
:100A2000F0E0808184608083808182608083808127
:100A3000816080838081806880831092C1000895E6
:100A4000A1E21A2EAA1BBB1BFD010DC0AA1FBB1FD2
:100A5000EE1FFF1FA217B307E407F50720F0A21B44
:100A6000B30BE40BF50B661F771F881F991F1A94B1
:100A700069F760957095809590959B01AC01BD01DB
:100A8000CF010895EE0FFF1F0590F491E02D09941A
:040A9000F894FFCF08
:100A9400663D6F4F630319322130055E1C6A59238A
:100AA4002570330D46036E1F076341735E445F7206
:100AB400222240010B427E72252A0358237C324AAB
:100AC4005F192218196F0474365A0B2079141A3ED0
:100AD4003C2D291421594B59021C13602E772744AD
:100AE400573B21525E0E7300005C553A3E7A6A5DB4
:100AF4002756504B17395907774B142A0178531846
:100B04003E4E14197E792A4E2D081134262C0D6878
:100B1400393E1D6000402F321611583F6C4E654619
:100B24006C450C0050736B47360539037B48380518
:100B34001E2D020B7C543F2F681C7A502A367A6291
:100B44002A633A7C1D1571551E23296267440F32AE
:100B54001F50362F2517603B2F541A54483376778D
:100B640026792D15575B144562770F592F2847694D
:100B74004C1F416D1E7F6E1140402D14715656332B
:100B840068733D673C712C656B213F272F781429CE
:100B940040663B56092A761A537B0A522F6C7F040F
:100BA400424B1A75502F6F261662655C64305A09E1
:100BB40047245A5F045E481D4D764E514B617F16A3
:100BC4000860506458457210196D4A037E38630FEB
:100BD40045494C13613B5466351E2221694B663CE2
:100BE400795D456C61707365642074696D65287501
:100BF40073293A2000000000000F027C03D1015643
:100C040002A301BD01AF010D0A006E616E00696EA1
:060C140066006F76660029
:00000001FF
