S018000041737369676E6D656E745F312E696E6F2E73726563EF
S11300000C9435000C945D000C945D000C945D0020
S11300100C945D000C945D000C945D000C945D00E8
S11300200C945D000C945D000C945D000C945D00D8
S11300300C945D000C945D000C945D000C945D00C8
S11300400C941D030C945D000C94D3010C940502D4
S11300500C945D000C945D000C945D000C945D00A8
S11300600C945D000C945D00350211241FBECFEF8B
S1130070D8E0DEBFCDBF11E0A0E0B1E0E2EEF7E0F2
S113008002C005900D92A433B107D9F721E0A4E38F
S1130090B1E001C01D92AA3DB207E1F710E0C5E34B
S11300A0D0E004C02197FE010E94E903C433D107C4
S11300B0C9F70E9463020C94EF030C94000028EA31
S11300C0662777273CE03A95F1F72A95C9F7089512
S11300D026E040E855E260E070E084E391E00C94AF
S11300E06E01CF92DF92EF92FF920E9467036B0141
S11300F07C010E945F000E9467039B01AC012C19E4
S11301003D094E095F0969017A0142E150E060E06E
S113011071E084E391E00E9472022AE030E0B701CA
S1130120A60184E391E0FF90EF90DF90CF900C94D0
S11301300B03FC01918D228D892F90E0805C9F4FF1
S1130140821B91098F7399270895FC01918D828DEB
S1130150981731F0828DE80FF11D858D90E0089598
S11301608FEF9FEF0895FC01918D828D981761F0B8
S1130170828DDF01A80FB11D5D968C91928D9F5FDA
S11301809F73928F90E008958FEF9FEF0895FC0185
S1130190538D448D252F30E0842F90E0821B930BE8
S11301A0541710F0CF960895019708958BE292E0CA
S11301B0892B49F080E090E0892B29F00E942B02E2
S11301C081110C9400000895FC01848DDF01A80FB7
S11301D0B11DA35ABF4F2C91848D90E001968F736B
S11301E09927848FA689B7892C93A089B1898C918A
S11301F080648C93938D848D981306C00288F38950
S1130200E02D80818F7D80830895EF92FF920F937C
S11302101F93CF93DF93EC0181E0888F9B8D8C8DAE
S1130220981305C0E889F989808185FD24C0F62EDC
S11302300B8D10E00F5F1F4F0F731127E02E8C8D75
S1130240E8120CC00FB607FCFACFE889F98980815F
S113025085FFF5CFCE010E94E400F1CF8B8DFE0126
S1130260E80FF11DE35AFF4FF0820B8FEA89FB89F7
S11302708081806207C0EE89FF896083E889F989FB
S113028080818064808381E090E0DF91CF911F9131
S11302900F91FF90EF900895CF93DF93EC01888D39
S11302A08823C9F0EA89FB89808185FD05C0A88976
S11302B0B9898C9186FD0FC00FB607FCF5CF8081FC
S11302C085FFF2CFA889B9898C9185FFEDCFCE0146
S11302D00E94E400E7CFDF91CF910895CF92DF929F
S11302E0EF92FF921F93CF93DF93EC016A017B019E
S11302F0122FE889F98982E080834115514E610506
S11303007105B1F060E079E08DE390E0A70196011A
S11303100E94C703DA01C9010197A109B109B69581
S1130320A795979587959C01211580E13807A8F03A
S1130330E889F989108260E874E88EE190E0A70109
S113034096010E94C703DA01C9010197A109B10905
S1130350B695A795979587959C01EC85FD85308387
S1130360EE85FF852083188EEC89FD891083EA8948
S1130370FB89808180618083EA89FB898081886030
S11303808083EA89FB89808180688083EA89FB898C
S113039080818F7D8083DF91CF911F91FF90EF90BB
S11303A0DF90CF9008951F920F920FB60F921124F1
S11303B02F938F939F93EF93FF93E0914401F091D8
S11303C045018081E0914A01F0914B0182FD12C008
S11303D0908180914D018F5F8F7320914E01821720
S11303E051F0E0914D01F0E0EC5CFE4F958F80936D
S11303F04D0101C08081FF91EF919F918F912F91C9
S11304000F900FBE0F901F9018951F920F920FB66A
S11304100F9211242F933F934F935F936F937F9386
S11304208F939F93AF93BF93EF93FF9384E391E0F4
S11304300E94E400FF91EF91BF91AF919F918F9142
S11304407F916F915F914F913F912F910F900FBECC
S11304500F901F90189584E391E00E94990021E089
S1130460892B09F420E0822F0895E4E3F1E013825C
S1130470128288EE93E0A0E0B0E084839583A683A3
S1130480B78387E191E09183808385EC90E0958741
S1130490848784EC90E09787868780EC90E0918B4A
S11304A0808B81EC90E0938B828B82EC90E0958B37
S11304B0848B86EC90E0978B868B118E128E138E34
S11304C0148E089508950E948C030E9462020E9473
S11304D06800C6EDD0E00E9471002097E1F30E940D
S11304E0D600F9CFCF92DF92EF92FF920F931F9332
S11304F0CF93DF936C017A018B01C0E0D0E0CE157D
S1130500DF0581F0D8016D918D01D601ED91FC914B
S11305100190F081E02DC6010995892B11F02196F7
S1130520EECF7E01C701DF91CF911F910F91FF9014
S1130530EF90DF90CF9008956115710579F0FB017C
S113054001900020E9F73197AF01461B570BDC01FE
S1130550ED91FC910280F381E02D099480E090E01C
S1130560089565E271E00C949C028F929F92AF9281
S1130570BF92EF92FF920F931F93CF93DF93CDB768
S1130580DEB7A1970FB6F894DEBF0FBECDBF7C01D6
S1130590FA01CB0119A2223008F42AE08E010F5D82
S11305A01F4F822E912CA12CB12CBF01A5019401C7
S11305B00E94C703F901CA01015011096A3010F4FD
S11305C0605D01C0695CD8016C93232B242B252B1F
S11305D061F7B801C7010E949C02A1960FB6F89476
S11305E0DEBF0FBECDBFDF91CF911F910F91FF9062
S11305F0EF90BF90AF909F908F9008952115310593
S113060041F4DC01ED91FC910190F081E02D642F27
S113061009940C94B5020F931F93CF93DF93EC01CD
S11306200E94FE028C01CE010E94B102800F911F34
S1130630DF91CF911F910F9108951F920F920FB6E2
S11306400F9211242F933F938F939F93AF93BF9354
S11306508091D2019091D301A091D401B091D501A0
S11306603091D10123E0230F2D3720F40196A11DF1
S1130670B11D05C026E8230F0296A11DB11D2093CC
S1130680D1018093D2019093D301A093D401B0936C
S1130690D5018091D6019091D701A091D801B09154
S11306A0D9010196A11DB11D8093D6019093D70164
S11306B0A093D801B093D901BF91AF919F918F912D
S11306C03F912F910F900FBE0F901F9018953FB739
S11306D0F8948091D6019091D701A091D801B0915E
S11306E0D90126B5A89B05C02F3F19F00196A11D7D
S11306F0B11D3FBFBA2FA92F982F8827820F911DB4
S1130700A11DB11DBC01CD0142E0660F771F881FFA
S1130710991F4A95D1F70895789484B5826084BD71
S113072084B5816084BD85B5826085BD85B58160F1
S113073085BDEEE6F0E0808181608083E1E8F0E051
S11307401082808182608083808181608083E0E880
S1130750F0E0808181608083E1EBF0E0808184605F
S11307608083E0EBF0E0808181608083EAE7F0E061
S113077080818460808380818260808380818160C5
S113078080838081806880831092C1000895A1E2F3
S11307901A2EAA1BBB1BFD010DC0AA1FBB1FEE1FF7
S11307A0FF1FA217B307E407F50720F0A21BB30B42
S11307B0E40BF50B661F771F881F991F1A9469F7BE
S11307C060957095809590959B01AC01BD01CF011A
S11307D00895EE0FFF1F0590F491E02D0994F8940D
S10507E0FFCF45
S11307E2456C61707365642074696D65287573293D
S11307F23A20000000000005017202C7004C019972
S113080200B300A5000D0A006E616E00696E6600F9
S10708126F76660093
S9030000FC
