S018000041737369676E6D656E745F312E696E6F2E73726563EF
S11300000C9435000C945D000C945D000C945D0020
S11300100C945D000C945D000C945D000C945D00E8
S11300200C945D000C945D000C945D000C945D00D8
S11300300C945D000C945D000C945D000C945D00C8
S11300400C946C040C945D000C94D3020C94050382
S11300500C945D000C945D000C945D000C945D00A8
S11300600C945D000C945D00350311241FBECFEF8A
S1130070D8E0DEBFCDBF12E0A0E0B1E0E0E8FAE0F6
S113008002C005900D92A638B107D9F723E0A6E87F
S1130090B2E001C01D92AC32B207E1F710E0C5E353
S11300A0D0E004C02197FE010E943805C433D10773
S11300B0C9F70E9463030C943E050C94000026E0EB
S11300C040E855E260E070E086E892E00E946E024B
S11300D008952F923F924F925F926F927F928F92E8
S11300E09F92AF92BF92CF92DF92EF92FF920F93C3
S11300F01F93CF93DF93CDB7DEB7CA5AD2400FB662
S1130100F894DEBF0FBECDBFFE01319684EA92E0C3
S1130110DF018C011D9201501040E1F70E94B604EA
S1130120CB55DD4F688379838A839B83C55AD2403C
S11301300F2EF2E5CF2EF2E0DF2EF02D0F2EF9EA8E
S1130140AF2EF1E0BF2EF02D0F2EFDE07F2EF02D0F
S1130150BE016F557D4F0F2EF8EAEF2EF1E0FF2E12
S1130160F02D21E532E0C755DD4F39832883C95A84
S1130170D2404E0133E0831A9108C755DD4FA88160
S1130180B981C95AD2402C91F7018081280290018B
S11301901124FD013297D7015A97C755DD4F488185
S11301A05981C95AD2404E50510980E090E05180A3
S11301B01D966C901D97052D162D0102200D311DE5
S11301C0112450806C90052D162D0102800D911D77
S11301D0112432975A974E175F0749F7D601EE91CB
S11301E06D01D5014E915D01042E000C550B4E0F8F
S11301F0511DE7FD5A95820F931F840F951FFB0134
S1130200208131814281538119012A01280E391E2E
S1130210411C511C20823182428253827A9477207D
S113022021F0F1E0EF1AF10815C0C755DD4F088140
S11302301981C95AD2400D501109C755DD4F198390
S11302400883C95AD2401CE0E10EF11C0F2EFDE0D8
S11302507F2EF02D645071096815790509F08DCF52
S11302600E94B6046B017C01CB55DD4F2880398098
S11302704A805B80C55AD240C218D308E408F50806
S1130280E0918602F09187020280F381E02D42E141
S113029050E062E572E086E892E009952AE030E0F9
S11302A0B701A60186E892E00E9412048E010F5F56
S11302B01F4F6E012BE5C21A2DEFD20A780134E3E9
S11302C0E30EF11CD8014D915D916D917D918D01ED
S11302D02AE030E086E892E00E94240469E086E89F
S11302E092E00E94B1030E151F0561F76AE086E8EB
S11302F092E00E94B1038701EC14FD04F9F6C6559F
S1130300DD4F0FB6F894DEBF0FBECDBFDF91CF91A6
S11303101F910F91FF90EF90DF90CF90BF90AF901F
S11303209F908F907F906F905F904F903F902F9011
S11303300895FC01918D228D892F90E0805C9F4F60
S1130340821B91098F7399270895FC01918D828DE9
S1130350981731F0828DE80FF11D858D90E0089596
S11303608FEF9FEF0895FC01918D828D981761F0B6
S1130370828DDF01A80FB11D5D968C91928D9F5FD8
S11303809F73928F90E008958FEF9FEF0895FC0183
S1130390538D448D252F30E0842F90E0821B930BE6
S11303A0541710F0CF960895019708958BE293E0C7
S11303B0892B49F080E090E0892B29F00E942B03DF
S11303C081110C9400000895FC01848DDF01A80FB5
S11303D0B11DA35ABF4F2C91848D90E001968F7369
S11303E09927848FA689B7892C93A089B1898C9188
S11303F080648C93938D848D981306C00288F3894E
S1130400E02D80818F7D80830895EF92FF920F937A
S11304101F93CF93DF93EC0181E0888F9B8D8C8DAC
S1130420981305C0E889F989808185FD24C0F62EDA
S11304300B8D10E00F5F1F4F0F731127E02E8C8D73
S1130440E8120CC00FB607FCFACFE889F98980815D
S113045085FFF5CFCE010E94E401F1CF8B8DFE0123
S1130460E80FF11DE35AFF4FF0820B8FEA89FB89F5
S11304708081806207C0EE89FF896083E889F989F9
S113048080818064808381E090E0DF91CF911F912F
S11304900F91FF90EF900895CF93DF93EC01888D37
S11304A08823C9F0EA89FB89808185FD05C0A88974
S11304B0B9898C9186FD0FC00FB607FCF5CF8081FA
S11304C085FFF2CFA889B9898C9185FFEDCFCE0144
S11304D00E94E401E7CFDF91CF910895CF92DF929C
S11304E0EF92FF921F93CF93DF93EC016A017B019C
S11304F0122FE889F98982E080834115514E610504
S11305007105B1F060E079E08DE390E0A701960118
S11305100E941605DA01C9010197A109B109B6952E
S1130520A795979587959C01211580E13807A8F038
S1130530E889F989108260E874E88EE190E0A70107
S113054096010E941605DA01C9010197A109B109B2
S1130550B695A795979587959C01EC85FD85308385
S1130560EE85FF852083188EEC89FD891083EA8946
S1130570FB89808180618083EA89FB89808188602E
S11305808083EA89FB89808180688083EA89FB898A
S113059080818F7D8083DF91CF911F91FF90EF90B9
S11305A0DF90CF9008951F920F920FB60F921124EF
S11305B02F938F939F93EF93FF93E0919602F09183
S11305C097028081E0919C02F0919D0282FD12C00D
S11305D0908180919F028F5F8F732091A002821778
S11305E051F0E0919F02F0E0EA57FD4F958F809320
S11305F09F0201C08081FF91EF919F918F912F9174
S11306000F900FBE0F901F9018951F920F920FB668
S11306100F9211242F933F934F935F936F937F9384
S11306208F939F93AF93BF93EF93FF9386E892E0EA
S11306300E94E401FF91EF91BF91AF919F918F913F
S11306407F916F915F914F913F912F910F900FBECA
S11306500F901F90189586E892E00E94990121E07E
S1130660892B09F420E0822F0895E6E8F2E0138252
S1130670128288EE93E0A0E0B0E084839583A683A1
S1130680B78389E692E09183808385EC90E0958737
S1130690848784EC90E09787868780EC90E0918B48
S11306A0808B81EC90E0938B828B82EC90E0958B35
S11306B0848B86EC90E0978B868B118E128E138E32
S11306C0148E089508950E94DB040E9462030E9420
S11306D05F00C6EDD1E00E9469002097E1F30E941B
S11306E0D601F9CFCF92DF92EF92FF920F931F932F
S11306F0CF93DF936C017A018B01C0E0D0E0CE157B
S1130700DF0581F0D8016D918D01D601ED91FC9149
S11307100190F081E02DC6010995892B11F02196F5
S1130720EECF7E01C701DF91CF911F910F91FF9012
S1130730EF90DF90CF9008956115710579F0FB017A
S113074001900020E9F73197AF01461B570BDC01FC
S1130750ED91FC910280F381E02D099480E090E01A
S11307600895DC01ED91FC910190F081E02D099454
S113077067E772E00C949C038F929F92AF92BF92B2
S1130780EF92FF920F931F93CF93DF93CDB7DEB712
S1130790A1970FB6F894DEBF0FBECDBF7C01FA015E
S11307A0CB0119A2223008F42AE08E010F5D1F4FFD
S11307B0822E912CA12CB12CBF01A50194010E9481
S11307C01605F901CA01015011096A3010F4605D7F
S11307D001C0695CD8016C93232B242B252B61F772
S11307E0B801C7010E949C03A1960FB6F894DEBF1E
S11307F00FBECDBFDF91CF911F910F91FF90EF906E
S1130800BF90AF909F908F9008952115310541F4CA
S1130810DC01ED91FC910190F081E02D642F0994AD
S11308200C94BC030F931F93CF93DF93EC010E94AE
S113083005048C01CE010E94B803800F911FDF9143
S1130840CF911F910F910895CF92DF92EF92FF9273
S11308500F931F93CF93DF932115310581F4DC01AE
S1130860ED91FC910190F081E02D642FDF91CF9107
S11308701F910F91FF90EF90DF90CF9009942A3051
S1130880310501F577FF1DC06A017B01EC016DE2C2
S11308900E94B1038C0144275527BA014C195D0904
S11308A06E097F092AE0CE010E94BC03800F911FCC
S11308B0DF91CF911F910F91FF90EF90DF90CF9038
S11308C008952AE0DF91CF911F910F91FF90EF904F
S11308D0DF90CF900C94BC031F920F920FB60F922F
S11308E011242F933F938F939F93AF93BF93809142
S11308F0240390912503A0912603B09127033091FE
S1130900230323E0230F2D3720F40196A11DB11DED
S113091005C026E8230F0296A11DB11D20932303D1
S11309208093240390932503A0932603B093270375
S11309308091280390912903A0912A03B0912B035D
S11309400196A11DB11D8093280390932903A093C0
S11309502A03B0932B03BF91AF919F918F913F9145
S11309602F910F900FBE0F901F9018953FB7F894DA
S11309708091280390912903A0912A03B0912B031D
S113098026B5A89B05C02F3F19F00196A11DB11DE6
S11309903FBFBA2FA92F982F8827820F911DA11D21
S11309A0B11DBC01CD0142E0660F771F881F991F5E
S11309B04A95D1F70895789484B5826084BD84B54E
S11309C0816084BD85B5826085BD85B5816085BD46
S11309D0EEE6F0E0808181608083E1E8F0E010825F
S11309E0808182608083808181608083E0E8F0E0A0
S11309F0808181608083E1EBF0E08081846080838A
S1130A00E0EBF0E0808181608083EAE7F0E08081C0
S1130A108460808380818260808380818160808320
S1130A208081806880831092C1000895A1E21A2E0B
S1130A30AA1BBB1BFD010DC0AA1FBB1FEE1FFF1F7E
S1130A40A217B307E407F50720F0A21BB30BE40BCE
S1130A50F50B661F771F881F991F1A9469F7609515
S1130A607095809590959B01AC01BD01CF010895CF
S1130A70EE0FFF1F0590F491E02D0994F894FFCF39
S1130A80663D6F4F630319322130055E1C6A59239A
S1130A902570330D46036E1F076341735E445F7216
S1130AA0222240010B427E72252A0358237C324ABB
S1130AB05F192218196F0474365A0B2079141A3EE0
S1130AC03C2D291421594B59021C13602E772744BD
S1130AD0573B21525E0E7300005C553A3E7A6A5DC4
S1130AE02756504B17395907774B142A0178531856
S1130AF03E4E14197E792A4E2D081134262C0D6889
S1130B00393E1D6000402F321611583F6C4E654629
S1130B106C450C0050736B47360539037B48380528
S1130B201E2D020B7C543F2F681C7A502A367A62A1
S1130B302A633A7C1D1571551E23296267440F32BE
S1130B401F50362F2517603B2F541A54483376779D
S1130B5026792D15575B144562770F592F2847695D
S1130B604C1F416D1E7F6E1140402D14715656333B
S1130B7068733D673C712C656B213F272F781429DE
S1130B8040663B56092A761A537B0A522F6C7F041F
S1130B90424B1A75502F6F261662655C64305A09F1
S1130BA047245A5F045E481D4D764E514B617F16B3
S1130BB00860506458457210196D4A037E38630FFB
S1130BC045494C13613B5466351E2221694B663CF2
S1130BD0795D456C61707365642074696D65287511
S1130BE073293A20000000000005027203C7014C7B
S1130BF0029901B301A5010D0A006E616E00696ED0
S1090C0066006F76660039
S9030000FC
