:100000000C9435000C945D000C945D000C945D0024
:100010000C945D000C945D000C945D000C945D00EC
:100020000C945D000C945D000C945D000C945D00DC
:100030000C945D000C945D000C945D000C945D00CC
:100040000C9457040C945D000C94BE020C94F002C6
:100050000C945D000C945D000C945D000C945D00AC
:100060000C945D000C945D00200311241FBECFEFA3
:10007000D8E0DEBFCDBF12E0A0E0B1E0E6E5FAE0F7
:1000800002C005900D92A638B107D9F723E0A6E883
:10009000B2E001C01D92AC32B207E1F710E0C5E357
:1000A000D0E004C02197FE010E942305C433D1078C
:1000B000C9F70E944E030C9429050C94000026E019
:1000C00040E855E260E070E086E892E00C94590266
:1000D0002F923F924F925F926F927F928F92AF9248
:1000E000BF92CF92DF92EF92FF920F931F93CF9325
:1000F000DF93CDB7DEB7CE5AD2400FB6F894DEBF4D
:100100000FBECDBF9E012F5F3F4FC955DD4F3983D5
:100110002883C75AD24084EA92E0F9019C011192E7
:1001200021503040E1F70E94A104C555DD4F68839E
:1001300079838A839B83CB5AD24092E5C92E92E081
:10014000D92E29EAA22E21E0B22E412C512C3201C7
:100150003DE0832EBE016F557D4F48EAE42E41E01D
:10016000F42E01E512E0AE0143505109CB55DD4FAD
:1001700059834883C55AD240F8019081F7018081A4
:100180009802C0011124F8013297D7015A97A801AB
:100190004E50510920E030E01801C755DD4F7983FA
:1001A0006883C95AD24011811D967C911D97170210
:1001B000800D911D112410817C911702200D311D9D
:1001C000112432975A974E175F0769F78101C75577
:1001D000DD4F68817981C95AD240F60152916F0191
:1001E000F50142915F01450F840F911D420E531E90
:1001F000611C711C480E591E611C711CFB01408260
:100200005182628273828A948820A1F0F1E0EF1A11
:10021000F10864507109CB55DD4F48815981C55AA9
:10022000D2406417750771F0FB01408051806280F5
:100230007380A2CF0D5011092CE0E20EF11C8DE06D
:10024000882EE7CF0E94A1046B017C01C555DD4FCC
:10025000288139814A815B81CB5AD240C21AD30AA4
:10026000E40AF50A42E150E062E572E086E892E0D5
:100270000E945D032AE030E0B701A60186E892E023
:100280000E94FD038E010F5F1F4F7E013BE5E31AC5
:100290003DEFF30A680144E3C40ED11CF80141911B
:1002A0005191619171918F012AE030E086E892E0EE
:1002B0000E940F0469E086E892E00E949C03C01649
:1002C000D10661F76AE086E892E00E949C0386010D
:1002D000CE14DF04F9F6C255DD4F0FB6F894DEBF39
:1002E0000FBECDBFDF91CF911F910F91FF90EF9087
:1002F000DF90CF90BF90AF908F907F906F905F9086
:100300004F903F902F900895FC01918D228D892F61
:1003100090E0805C9F4F821B91098F73992708950D
:10032000FC01918D828D981731F0828DE80FF11DBF
:10033000858D90E008958FEF9FEF0895FC01918DDA
:10034000828D981761F0828DDF01A80FB11D5D9637
:100350008C91928D9F5F9F73928F90E008958FEFA5
:100360009FEF0895FC01538D448D252F30E0842F9D
:1003700090E0821B930B541710F0CF9608950197CD
:10038000089586E193E0892B49F080E090E0892B85
:1003900029F00E94160381110C9400000895FC01BD
:1003A000848DDF01A80FB11DA35ABF4F2C91848DFE
:1003B00090E001968F739927848FA689B7892C9333
:1003C000A089B1898C9180648C93938D848D9813CE
:1003D00006C00288F389E02D80818F7D8083089597
:1003E000EF92FF920F931F93CF93DF93EC0181E085
:1003F000888F9B8D8C8D981305C0E889F989808141
:1004000085FD24C0F62E0B8D10E00F5F1F4F0F737C
:100410001127E02E8C8DE8120CC00FB607FCFACF26
:10042000E889F989808185FFF5CFCE010E94CF014F
:10043000F1CF8B8DFE01E80FF11DE35AFF4FF082E3
:100440000B8FEA89FB898081806207C0EE89FF8972
:100450006083E889F98980818064808381E090E00D
:10046000DF91CF911F910F91FF90EF900895CF935F
:10047000DF93EC01888D8823C9F0EA89FB898081AC
:1004800085FD05C0A889B9898C9186FD0FC00FB67E
:1004900007FCF5CF808185FFF2CFA889B9898C91BF
:1004A00085FFEDCFCE010E94CF01E7CFDF91CF9145
:1004B0000895CF92DF92EF92FF921F93CF93DF9335
:1004C000EC016A017B01122FE889F98982E08083BF
:1004D0004115514E61057105B1F060E079E08DE3A1
:1004E00090E0A70196010E940105DA01C901019778
:1004F000A109B109B695A795979587959C012115F6
:1005000080E13807A8F0E889F989108260E874E88A
:100510008EE190E0A70196010E940105DA01C90170
:100520000197A109B109B695A795979587959C0163
:10053000EC85FD853083EE85FF852083188EEC8960
:10054000FD891083EA89FB89808180618083EA8943
:10055000FB89808188608083EA89FB89808180684B
:100560008083EA89FB8980818F7D8083DF91CF91B1
:100570001F91FF90EF90DF90CF9008951F920F9200
:100580000FB60F9211242F938F939F93EF93FF93A6
:10059000E0919602F09197028081E0919C02F091A7
:1005A0009D0282FD12C0908180919F028F5F8F73A8
:1005B0002091A002821751F0E0919F02F0E0EA57EB
:1005C000FD4F958F80939F0201C08081FF91EF9135
:1005D0009F918F912F910F900FBE0F901F901895A4
:1005E0001F920F920FB60F9211242F933F934F93A8
:1005F0005F936F937F938F939F93AF93BF93EF938B
:10060000FF9386E892E00E94CF01FF91EF91BF91A6
:10061000AF919F918F917F916F915F914F913F919A
:100620002F910F900FBE0F901F90189586E892E0C3
:100630000E94840121E0892B09F420E0822F089593
:10064000E6E8F2E01382128288EE93E0A0E0B0E0E8
:1006500084839583A683B78389E692E09183808320
:1006600085EC90E09587848784EC90E09787868777
:1006700080EC90E0918B808B81EC90E0938B828B6F
:1006800082EC90E0958B848B86EC90E0978B868B48
:10069000118E128E138E148E089508950E94C60432
:1006A0000E944D030E945F00C1ECD1E00E946800EF
:1006B0002097E1F30E94C101F9CFCF92DF92EF9230
:1006C000FF920F931F93CF93DF936C017A018B01FD
:1006D000C0E0D0E0CE15DF0581F0D8016D918D012D
:1006E000D601ED91FC910190F081E02DC6010995B4
:1006F000892B11F02196EECF7E01C701DF91CF91BA
:100700001F910F91FF90EF90DF90CF9008956115AA
:10071000710579F0FB0101900020E9F73197AF01F5
:10072000461B570BDC01ED91FC910280F381E02D1B
:10073000099480E090E00895DC01ED91FC91019036
:10074000F081E02D099467E772E00C9487038F92A3
:100750009F92AF92BF92EF92FF920F931F93CF930E
:10076000DF93CDB7DEB7A1970FB6F894DEBF0FBE0B
:10077000CDBF7C01FA01CB0119A2223008F42AE096
:100780008E010F5D1F4F822E912CA12CB12CBF0129
:10079000A50194010E940105F901CA010150110946
:1007A0006A3010F4605D01C0695CD8016C93232B42
:1007B000242B252B61F7B801C7010E948703A1965E
:1007C0000FB6F894DEBF0FBECDBFDF91CF911F9162
:1007D0000F91FF90EF90BF90AF909F908F900895F2
:1007E0002115310541F4DC01ED91FC910190F0817E
:1007F000E02D642F09940C94A7030F931F93CF93BC
:10080000DF93EC010E94F0038C01CE010E94A30350
:10081000800F911FDF91CF911F910F910895CF927B
:10082000DF92EF92FF920F931F93CF93DF932115E7
:10083000310581F4DC01ED91FC910190F081E02D16
:10084000642FDF91CF911F910F91FF90EF90DF9078
:10085000CF9009942A30310501F577FF1DC06A0158
:100860007B01EC016DE20E949C038C01442755271B
:10087000BA014C195D096E097F092AE0CE010E9478
:10088000A703800F911FDF91CF911F910F91FF90D0
:10089000EF90DF90CF9008952AE0DF91CF911F91E4
:1008A0000F91FF90EF90DF90CF900C94A7031F92D1
:1008B0000F920FB60F9211242F933F938F939F9314
:1008C000AF93BF938091240390912503A0912603B9
:1008D000B09127033091230323E0230F2D3720F419
:1008E0000196A11DB11D05C026E8230F0296A11D8A
:1008F000B11D209323038093240390932503A09399
:100900002603B09327038091280390912903A09197
:100910002A03B0912B030196A11DB11D80932803DA
:1009200090932903A0932A03B0932B03BF91AF9117
:100930009F918F913F912F910F900FBE0F901F901D
:1009400018953FB7F8948091280390912903A091BE
:100950002A03B0912B0326B5A89B05C02F3F19F0A1
:100960000196A11DB11D3FBFBA2FA92F982F88272F
:10097000820F911DA11DB11DBC01CD0142E0660F8A
:10098000771F881F991F4A95D1F70895789484B5E9
:10099000826084BD84B5816084BD85B5826085BD7B
:1009A00085B5816085BDEEE6F0E080818160808361
:1009B000E1E8F0E010828081826080838081816044
:1009C0008083E0E8F0E0808181608083E1EBF0E00B
:1009D000808184608083E0EBF0E0808181608083AF
:1009E000EAE7F0E080818460808380818260808398
:1009F0008081816080838081806880831092C100C3
:100A00000895A1E21A2EAA1BBB1BFD010DC0AA1F4F
:100A1000BB1FEE1FFF1FA217B307E407F50720F067
:100A2000A21BB30BE40BF50B661F771F881F991FE2
:100A30001A9469F760957095809590959B01AC012B
:100A4000BD01CF010895EE0FFF1F0590F491E02D39
:060A50000994F894FFCFA9
:100A5600663D6F4F630319322130055E1C6A5923C8
:100A66002570330D46036E1F076341735E445F7244
:100A7600222240010B427E72252A0358237C324AE9
:100A86005F192218196F0474365A0B2079141A3E0E
:100A96003C2D291421594B59021C13602E772744EB
:100AA600573B21525E0E7300005C553A3E7A6A5DF2
:100AB6002756504B17395907774B142A0178531884
:100AC6003E4E14197E792A4E2D081134262C0D68B7
:100AD600393E1D6000402F321611583F6C4E654658
:100AE6006C450C0050736B47360539037B48380557
:100AF6001E2D020B7C543F2F681C7A502A367A62D0
:100B06002A633A7C1D1571551E23296267440F32EC
:100B16001F50362F2517603B2F541A5448337677CB
:100B260026792D15575B144562770F592F2847698B
:100B36004C1F416D1E7F6E1140402D147156563369
:100B460068733D673C712C656B213F272F7814290C
:100B560040663B56092A761A537B0A522F6C7F044D
:100B6600424B1A75502F6F261662655C64305A091F
:100B760047245A5F045E481D4D764E514B617F16E1
:100B86000860506458457210196D4A037E38630F29
:100B960045494C13613B5466351E2221694B663C20
:100BA600795D456C61707365642074696D6528753F
:100BB60073293A200000000000F0015D03B20137FE
:100BC6000284019E0190010D0A006E616E00696E3D
:060BD60066006F76660068
:00000001FF
