:100000000C9435000C945D000C945D000C945D0024
:100010000C945D000C945D000C945D000C945D00EC
:100020000C945D000C945D000C945D000C945D00DC
:100030000C945D000C945D000C945D000C945D00CC
:100040000C9436050C945D000C94EC030C941E0487
:100050000C945D000C945D000C945D000C945D00AC
:100060000C945D000C945D004E0411241FBECFEF74
:10007000D8E0DEBFCDBF12E0A0E0B1E0E4E1FCE0FB
:1000800002C005900D92A638B107D9F723E0A6E883
:10009000B2E001C01D92AC32B207E1F710E0C5E357
:1000A000D0E004C02197FE010E940206C433D107AC
:1000B000C9F70E947C040C9408060C94000026E00A
:1000C00040E855E260E070E086E892E00C94870337
:1000D0002F923F924F925F926F927F928F929F9258
:1000E000AF92BF92CF92DF92EF92FF920F931F9346
:1000F000CF93DF93CDB7DEB7C55BD2400FB6F89490
:10010000DEBF0FBECDBFFE01319684EA92E0DF0173
:100110009C011D9221503040E1F70E948005CE5491
:10012000DD4F688379838A839B83C25BD24038EE3C
:10013000CF54DD4F3883C15BD240712CC255DD4FA7
:100140001882CE5AD240212C312CC355DD4F188253
:10015000CD5AD240C455DD4F1882CC5AD240C55535
:10016000DD4F1882CB5AD240C655DD4F1882CA5A8D
:10017000D240C755DD4F1882C95AD240C855DD4F0D
:100180001882C85AD240C955DD4F1882C75AD2408A
:10019000CA55DD4F1882C65AD240CB55DD4F188262
:1001A000C55AD240A8EAB1E001E512E08FE4E82E9A
:1001B0009DE0692E4E014BE5841A4DEF940A22E52D
:1001C000A22E22E0B22E39EAC32E31E0D32E49EA24
:1001D000F42EC155DD4F7882CF5AD240C055DD4F45
:1001E0006882C05BD240FE9C812D11248695869545
:1001F0005F2DC055DD4F9881C05BD240899F50195B
:100200001124511156C0D801BC91CB55DD4FB88394
:10021000C55AD240F80131974080CA55DD4F488217
:10022000C65AD24031975080C955DD4F5882C75ABF
:10023000D24031976080C855DD4F6882C85AD2409D
:1002400031977080C755DD4F7882C95AD2403197B7
:100250002081C655DD4F2883CA5AD240319730815C
:10026000C555DD4F3883CB5AD24031974081C455B4
:10027000DD4F4883CC5AD24031975081C355DD4F72
:100280005883CD5AD24031973080319720803197B2
:100290008081C255DD4F8883CE5AD24031979081FC
:1002A000C155DD4F9883CF5AD2400D501109A8EAAD
:1002B000B1E09C91FD013D978081CB55DD4F2881B8
:1002C000C55AD2402902F0011124AF01FF0F660B7D
:1002D000770BCA55DD4F3881C65AD2403802C0016B
:1002E00011242C01990F66087708440D551D661DD1
:1002F000771DFD017A97E081C955DD4F8881C75A86
:10030000D2408E02F00111242F01FF0F66087708FA
:10031000440D551D661D771DFD01B797E081C85539
:10032000DD4F9881C85AD2409E02F00111242F015E
:10033000FF0F66087708440D551D661D771DFD01EA
:10034000F497E081C755DD4F2881C95AD2402E026B
:10035000F00111242F01FF0F66087708440D551D89
:10036000661D771DFD01E154F109E081C655DD4FA1
:100370003881CA5AD2403E02F00111242F01FF0FEA
:1003800066087708440D551D661D771DFD01EE5466
:10039000F109E081C555DD4F8881CB5AD2408E02EC
:1003A000F00111242F01FF0F66087708440D551D39
:1003B000661D771DFD01EB55F109E081C455DD4F48
:1003C0009881CC5AD2409E02F00111242F01FF0FD8
:1003D00066087708440D551D661D771DFD01E8561A
:1003E000F109E081C355DD4F2881CD5AD2402E025C
:1003F000F00111242F01FF0F66087708440E551EE7
:10040000661E771EFD01E557F1096081332D360226
:10041000B0011124AB01770F660B770B440E551E0C
:10042000661E771E3D974081822D8402A001112413
:10043000052E000C660B770B440D551D661D771DB0
:100440003D972081C255DD4F9881CE5AD24092020D
:10045000900111242901330F66087708440E551EB8
:10046000661E771E3D978081C155DD4FE881CF5ACA
:10047000D240E802C0011124AC01990F660B770B42
:10048000440E551E661E771EF50142915F01042E33
:10049000000C550B660B770B440E551E661E771E1F
:1004A000F60122916F01422F220F550B660B770B3D
:1004B0009A01AB01240D351D461D571DF401929183
:1004C0008291729162914F012B013C01420E531EA9
:1004D000641E751E40825182628273821197FA9463
:1004E000F11081CECF54DD4F8881C15BD240815065
:1004F000F1F70E9480056B017C01CE54DD4F4880EE
:1005000059806A807B80C25BD240C418D508E60857
:10051000F70842E150E062E572E086E892E00E946E
:100520008B042AE030E0B701A60186E892E0CB54C4
:10053000DD4F0FB6F894DEBF0FBECDBFDF91CF9178
:100540001F910F91FF90EF90DF90CF90BF90AF90F1
:100550009F908F907F906F905F904F903F902F90E3
:100560000C942405FC01918D228D892F90E0805CF4
:100570009F4F821B91098F7399270895FC01918DDC
:10058000828D981731F0828DE80FF11D858D90E0F6
:1005900008958FEF9FEF0895FC01918D828D98173C
:1005A00061F0828DDF01A80FB11D5D968C91928D57
:1005B0009F5F9F73928F90E008958FEF9FEF089554
:1005C000FC01538D448D252F30E0842F90E0821B59
:1005D000930B541710F0CF9608950197089584E473
:1005E00094E0892B49F080E090E0892B29F00E946B
:1005F000440481110C9400000895FC01848DDF01F6
:10060000A80FB11DA35ABF4F2C91848D90E0019685
:100610008F739927848FA689B7892C93A089B18974
:100620008C9180648C93938D848D981306C002887E
:10063000F389E02D80818F7D80830895EF92FF9272
:100640000F931F93CF93DF93EC0181E0888F9B8DF5
:100650008C8D981305C0E889F989808185FD24C0B7
:10066000F62E0B8D10E00F5F1F4F0F731127E02E3A
:100670008C8DE8120CC00FB607FCFACFE889F98917
:10068000808185FFF5CFCE010E94FD02F1CF8B8DD9
:10069000FE01E80FF11DE35AFF4FF0820B8FEA894C
:1006A000FB898081806207C0EE89FF896083E889C9
:1006B000F98980818064808381E090E0DF91CF912F
:1006C0001F910F91FF90EF900895CF93DF93EC016E
:1006D000888D8823C9F0EA89FB89808185FD05C062
:1006E000A889B9898C9186FD0FC00FB607FCF5CF9C
:1006F000808185FFF2CFA889B9898C9185FFEDCFE4
:10070000CE010E94FD02E7CFDF91CF910895CF92F5
:10071000DF92EF92FF921F93CF93DF93EC016A0178
:100720007B01122FE889F98982E080834115514EBF
:1007300061057105B1F060E079E08DE390E0A7011B
:1007400096010E94E005DA01C9010197A109B109EA
:10075000B695A795979587959C01211580E1380757
:10076000A8F0E889F989108260E874E88EE190E0E9
:10077000A70196010E94E005DA01C9010197A109CC
:10078000B109B695A795979587959C01EC85FD8550
:100790003083EE85FF852083188EEC89FD891083D8
:1007A000EA89FB89808180618083EA89FB89808175
:1007B00088608083EA89FB89808180688083EA89F8
:1007C000FB8980818F7D8083DF91CF911F91FF9086
:1007D000EF90DF90CF9008951F920F920FB60F9277
:1007E00011242F938F939F93EF93FF93E0919602A1
:1007F000F09197028081E0919C02F0919D0282FD30
:1008000012C0908180919F028F5F8F732091A00210
:10081000821751F0E0919F02F0E0EA57FD4F958F6B
:1008200080939F0201C08081FF91EF919F918F91F2
:100830002F910F900FBE0F901F9018951F920F923F
:100840000FB60F9211242F933F934F935F936F93A3
:100850007F938F939F93AF93BF93EF93FF9386E81C
:1008600092E00E94FD02FF91EF91BF91AF919F91A5
:100870008F917F916F915F914F913F912F910F9049
:100880000FBE0F901F90189586E892E00E94B2026A
:1008900021E0892B09F420E0822F0895E6E8F2E0B8
:1008A0001382128288EE93E0A0E0B0E08483958307
:1008B000A683B78389E692E09183808385EC90E0FC
:1008C0009587848784EC90E09787868780EC90E01A
:1008D000918B808B81EC90E0938B828B82EC90E00B
:1008E000958B848B86EC90E0978B868B118E128E85
:1008F000138E148E089508950E94A5050E947B040E
:100900000E945F00CFEED2E00E9468002097E1F3E2
:100910000E94EF02F9CFCF92DF92EF92FF920F93F6
:100920001F93CF93DF936C017A018B01C0E0D0E07D
:10093000CE15DF0581F0D8016D918D01D601ED91C5
:10094000FC910190F081E02DC6010995892B11F0F1
:100950002196EECF7E01C701DF91CF911F910F91BC
:10096000FF90EF90DF90CF9008956115710579F0B9
:10097000FB0101900020E9F73197AF01461B570BAF
:10098000DC01ED91FC910280F381E02D099480E07F
:1009900090E0089567E772E00C94B5048F929F92FF
:1009A000AF92BF92EF92FF920F931F93CF93DF937B
:1009B000CDB7DEB7A1970FB6F894DEBF0FBECDBF9F
:1009C0007C01FA01CB0119A2223008F42AE08E0141
:1009D0000F5D1F4F822E912CA12CB12CBF01A501C0
:1009E00094010E94E005F901CA01015011096A3021
:1009F00010F4605D01C0695CD8016C93232B242B3B
:100A0000252B61F7B801C7010E94B504A1960FB666
:100A1000F894DEBF0FBECDBFDF91CF911F910F9134
:100A2000FF90EF90BF90AF909F908F900895211509
:100A3000310541F4DC01ED91FC910190F081E02D54
:100A4000642F09940C94CE040F931F93CF93DF93DC
:100A5000EC010E9417058C01CE010E94CA04800F90
:100A6000911FDF91CF911F910F9108951F920F92C7
:100A70000FB60F9211242F933F938F939F93AF93B1
:100A8000BF938091240390912503A0912603B091F8
:100A900027033091230323E0230F2D3720F4019601
:100AA000A11DB11D05C026E8230F0296A11DB11D91
:100AB000209323038093240390932503A09326037C
:100AC000B09327038091280390912903A0912A03D2
:100AD000B0912B030196A11DB11D80932803909323
:100AE0002903A0932A03B0932B03BF91AF919F9149
:100AF0008F913F912F910F900FBE0F901F901895DF
:100B00003FB7F8948091280390912903A0912A037C
:100B1000B0912B0326B5A89B05C02F3F19F0019675
:100B2000A11DB11D3FBFBA2FA92F982F8827820F73
:100B3000911DA11DB11DBC01CD0142E0660F771FC3
:100B4000881F991F4A95D1F70895789484B58260DB
:100B500084BD84B5816084BD85B5826085BD85B561
:100B6000816085BDEEE6F0E0808181608083E1E810
:100B7000F0E0108280818260808380818160808348
:100B8000E0E8F0E0808181608083E1EBF0E080814B
:100B900084608083E0EBF0E0808181608083EAE71D
:100BA000F0E08081846080838081826080838081A6
:100BB000816080838081806880831092C100089565
:100BC000A1E21A2EAA1BBB1BFD010DC0AA1FBB1F51
:100BD000EE1FFF1FA217B307E407F50720F0A21BC3
:100BE000B30BE40BF50B661F771F881F991F1A9430
:100BF00069F760957095809590959B01AC01BD015A
:100C0000CF010895EE0FFF1F0590F491E02D099498
:040C1000F894FFCF86
:100C1400663D6F4F630319322130055E1C6A592308
:100C24002570330D46036E1F076341735E445F7284
:100C3400222240010B427E72252A0358237C324A29
:100C44005F192218196F0474365A0B2079141A3E4E
:100C54003C2D291421594B59021C13602E7727442B
:100C6400573B21525E0E7300005C553A3E7A6A5D32
:100C74002756504B17395907774B142A01785318C4
:100C84003E4E14197E792A4E2D081134262C0D68F7
:100C9400393E1D6000402F321611583F6C4E654698
:100CA4006C450C0050736B47360539037B48380597
:100CB4001E2D020B7C543F2F681C7A502A367A6210
:100CC4002A633A7C1D1571551E23296267440F322D
:100CD4001F50362F2517603B2F541A54483376770C
:100CE40026792D15575B144562770F592F284769CC
:100CF4004C1F416D1E7F6E1140402D1471565633AA
:100D040068733D673C712C656B213F272F7814294C
:100D140040663B56092A761A537B0A522F6C7F048D
:100D2400424B1A75502F6F261662655C64305A095F
:100D340047245A5F045E481D4D764E514B617F1621
:100D44000860506458457210196D4A037E38630F69
:100D540045494C13613B5466351E2221694B663C60
:100D6400795D456C61707365642074696D6528757F
:100D740073293A2000000000001E038B04E0026582
:100D840003B202CC02BE020D0A006E616E00696EEF
:060D940066006F766600A8
:00000001FF
