S018000041737369676E6D656E745F312E696E6F2E73726563EF
S11300000C9435000C945D000C945D000C945D0020
S11300100C945D000C945D000C945D000C945D00E8
S11300200C945D000C945D000C945D000C945D00D8
S11300300C945D000C945D000C945D000C945D00C8
S11300400C94B7060C945D000C9482050C94B405D2
S11300500C945D000C945D000C945D000C945D00A8
S11300600C945D000C945D00E40511241FBECFEFD9
S1130070D8E0DEBFCDBF12E0A0E0B1E0E8E2FFE0EF
S113008002C005900D92A439B107D9F723E0A4E981
S1130090B2E001C01D92AA33B207E1F710E0C5E354
S11300A0D0E004C02197FE010E948307C433D10726
S11300B0C9F70E9412060C9492070C940000CF9387
S11300C0DF93CDB7DEB740E855E260E070E084E945
S11300D092E00E9425040000DF91CF9108952F92B1
S11300E03F924F925F926F927F928F929F92AF92C4
S11300F0BF92CF92DF92EF92FF920F931F93CF9311
S1130100DF93CDB7DEB7CC5BD2400FB6F894DEBF39
S11301100FBECDBF24EA32E0CE014796FC0189012F
S1130120119201501040E1F788EA91E09A838983A3
S113013089819A819C838B8381E592E09E838D8360
S11301408D819E8198878F83CE01479680569D4FDF
S11301509A8789870F2EF9EADF2EF02D89819A81FB
S11301609C01215031093A832983FC01C080898193
S11301709A819C01215031093A832983FC01B08082
S113018089819A819C01215031093A832983FC0198
S1130190A08089819A819C01215031093A83298365
S11301A0FC01908089819A819C01215031093A8314
S11301B02983FC01808089819A819C012150310925
S11301C03A832983FC01708089819A819C012150A2
S11301D031093A832983FC01608089819A819C01D9
S11301E0215031093A832983FC01508089819A8105
S11301F09C01215031093A832983FC014080898183
S11302009A819C01215031093A832983FC01308071
S113021089819A819C01215031093A832983FC0107
S1130220208089819A819C01215031093A83298354
S1130230FC01F081C554DD4FF883CB5BD24089814A
S11302409A819C01215031093A832983FC01F08170
S1130250C454DD4FF883CC5BD2400E940107DC011B
S1130260CB018B879C87AD87BE87DD2009F473C2E1
S1130270E12CF12C87014C2D0C2C000C550B8D819D
S11302809E81FC018081282F880F330B429FC0017F
S1130290439F900D529F900D1124092E000CAA0B20
S11302A0BB0BE80EF91E0A1F1B1F8D819E810D9743
S11302B09E838D834B2D0B2C000C550B8D819E81C1
S11302C0FC018081282F880F330B429FC001439F7C
S11302D0900D529F900D1124092E000CAA0BBB0BFC
S11302E0E80EF91E0A1F1B1F8D819E810D979E83A8
S11302F08D834A2D0A2C000C550B8D819E81FC01A7
S11303008081282F880F330B429FC001439F900D9B
S1130310529F900D1124092E000CAA0BBB0BE80E62
S1130320F91E0A1F1B1F8D819E810D979E838D834D
S1130330492D092C000C550B8D819E81FC01808177
S1130340282F880F330B429FC001439F900D529F6B
S1130350900D1124092E000CAA0BBB0BE80EF91EFC
S11303600A1F1B1F8D819E810D979E838D83482DAF
S1130370082C000C550B8D819E81FC018081282F57
S1130380880F330B429FC001439F900D529F900DE5
S11303901124092E000CAA0BBB0BE80EF91E0A1F30
S11303A01B1F8D819E810D979E838D83472D072C66
S11303B0000C550B8D819E81FC018081282F880FB4
S11303C0330B429FC001439F900D529F900D112407
S11303D0092E000CAA0BBB0BE80EF91E0A1F1B1FEB
S11303E08D819E810D979E838D83462D062C000C56
S11303F0550B8D819E81FC018081282F880F330B42
S1130400429FC001439F900D529F900D1124092ECD
S1130410000CAA0BBB0BE80EF91E0A1F1B1F8D81D3
S11304209E810D979E838D83452D052C000C550BC5
S11304308D819E81FC018081282F880F330B429F80
S1130440C001439F900D529F900D1124092E000C62
S1130450AA0BBB0BE80EF91E0A1F1B1F8D819E8180
S11304600D979E838D83442D042C000C550B8D8198
S11304709E81FC018081282F880F330B429FC0018D
S1130480439F900D529F900D1124092E000CAA0B2E
S1130490BB0BE80EF91E0A1F1B1F8D819E810D9751
S11304A09E838D83432D032C000C550B8D819E81DF
S11304B0FC018081282F880F330B429FC001439F8A
S11304C0900D529F900D1124092E000CAA0BBB0B0A
S11304D0E80EF91E0A1F1B1F8D819E810D979E83B6
S11304E08D83422D022C000C550B8D819E81FC01C5
S11304F08081282F880F330B429FC001439F900DAA
S1130500529F900D1124092E000CAA0BBB0BE80E70
S1130510F91E0A1F1B1F8D819E810D979E838D835B
S1130520C554DD4FF881CB5BD2404F2FFF0F550BE5
S11305308D819E81FC018081282F880F330B429F7F
S1130540C001439F900D529F900D1124092E000C61
S1130550AA0BBB0BE80EF91E0A1F1B1F8D819E817F
S11305600D979E838D83C454DD4FF881CC5BD240BC
S11305704F2FFF0F550B8D819E81FC018081282F09
S1130580880F330B429FC001439F900D529F900DE3
S11305901124092E000CAA0BBB0BE80EF91E0A1F2E
S11305A01B1F8D819E810D979E838D8389859A85DE
S11305B0FC0120813181428153818B819C81FC012A
S11305C08081682F880F770B8F819885FC0180814B
S11305D0082E000C990B860F971F092E000CAA0BEE
S11305E0BB0B8E0D9F1DA01FB11F820F931FA41F55
S11305F0B51F29853A85F90180839183A283B3834A
S11306008D819E8188559F4F9E838D838B819C8194
S113061001979C838B838F819885019798878F831B
S113062089859A8504979A8789878FE4D89E812D36
S11306301124869586959DE0899F802D1124FD2D9A
S1130640F81B8F2F882309F084C089819A819C012B
S1130650215031093A832983FC01C08089819A8120
S11306609C01215031093A832983FC01B08089819E
S11306709A819C01215031093A832983FC01A0808D
S113068089819A819C01215031093A832983FC0193
S1130690908089819A819C01215031093A83298370
S11306A0FC01808089819A819C01215031093A831F
S11306B02983FC01708089819A819C012150310930
S11306C03A832983FC01608089819A819C012150AD
S11306D031093A832983FC01508089819A819C01E4
S11306E0215031093A832983FC01408089819A8110
S11306F09C01215031093A832983FC01308089818E
S11307009A819C01215031093A832983FC0120807C
S113071089819A819C01215031093A832983FC0102
S1130720F081C554DD4FF883CB5BD24089819A8137
S11307309C01215031093A832983FC01F081C4547E
S1130740DD4FF883CC5BD2408D819E810D969E83D4
S11307508D83DA948ACD0E940107DC01CB018F8757
S1130760988BA98BBA8B2F85388949895A898B85AF
S11307709C85AD85BE8579018A01E81AF90A0A0BC0
S11307801B0BD801C7018B8B9C8BAD8BBE8B60E69A
S113079072E084E992E00E94F4038B899C89AD891C
S11307A0BE892AE030E0AC01BD0184E992E00E94F8
S11307B0A5060000C454DD4F0FB6F894DEBF0FBE8B
S11307C0CDBFDF91CF911F910F91FF90EF90DF90FC
S11307D0CF90BF90AF909F908F907F906F905F90DD
S11307E04F903F902F9008950F931F93CF93DF93D3
S11307F000D000D0CDB7DEB79A8389837C836B8326
S11308008B819C81892B19F480E090E015C089814B
S11308109A81FC01808191810296FC010081118101
S11308208B819C810E948907AC012B813C81898149
S11308309A81B901F80109950F900F900F900F90CC
S1130840DF91CF911F910F910895CF93DF9300D043
S113085000D000D0CDB7DEB79A8389834B835C8305
S11308606D837E838B819C81AD81BE81E981FA8118
S113087026E0AC01BD01CF010E941D0500002696B3
S11308800FB6F894DEBF0FBECDBFDF91CF910895B0
S1130890FC01918D228D892F90E0805C9F4F821BFB
S11308A091098F7399270895FC01918D828D981772
S11308B031F0828DE80FF11D858D90E008958FEF62
S11308C09FEF0895FC01918D828D981761F0828DC0
S11308D0DF01A80FB11D5D968C91928D9F5F9F7370
S11308E0928F90E008958FEF9FEF0895FC01538D50
S11308F0448D252F30E0842F90E0821B930B5417F6
S113090010F0CF960895019708958AED95E0892B0C
S113091049F080E090E0892B29F00E94DA058111EA
S11309200C9400000895FC01848DDF01A80FB11D13
S1130930A35ABF4F2C91848D90E001968F73992711
S1130940848FA689B7892C93A089B1898C918064FE
S11309508C93938D848D981306C00288F389E02DBF
S113096080818F7D80830895EF92FF920F931F9370
S1130970CF93DF93EC0181E0888F9B8D8C8D98134E
S113098005C0E889F989808185FD24C0F62E0B8D88
S113099010E00F5F1F4F0F731127E02E8C8DE812AC
S11309A00CC00FB607FCFACFE889F989808185FF6E
S11309B0F5CFCE010E949304F1CF8B8DFE01E80F99
S11309C0F11DE35AFF4FF0820B8FEA89FB89808186
S11309D0806207C0EE89FF896083E889F989808194
S11309E08064808381E090E0DF91CF911F910F912B
S11309F0FF90EF900895CF93DF93EC01888D8823C7
S1130A00C9F0EA89FB89808185FD05C0A889B98977
S1130A108C9186FD0FC00FB607FCF5CF808185FF52
S1130A20F2CFA889B9898C9185FFEDCFCE010E94C0
S1130A309304E7CFDF91CF910895CF92DF92EF92A5
S1130A40FF921F93CF93DF93EC016A017B01122F76
S1130A50E889F98982E080834115514E6105710569
S1130A60B1F060E079E08DE390E0A70196010E9487
S1130A706107DA01C9010197A109B109B695A795E2
S1130A80979587959C01211580E13807A8F0E8899E
S1130A90F989108260E874E88EE190E0A70196017C
S1130AA00E946107DA01C9010197A109B109B6954C
S1130AB0A795979587959C01EC85FD853083EE85F8
S1130AC0FF852083188EEC89FD891083EA89FB89D0
S1130AD0808180618083EA89FB898081886080834A
S1130AE0EA89FB89808180688083EA89FB89808127
S1130AF08F7D8083DF91CF911F91FF90EF90DF90E6
S1130B00CF9008951F920F920FB60F9211242F9336
S1130B108F939F93EF93FF93E091A402F091A5022A
S1130B208081E091AA02F091AB0282FD12C0908113
S1130B308091AD028F5F8F732091AE02821751F0C6
S1130B40E091AD02F0E0EC56FD4F958F8093AD023D
S1130B5001C08081FF91EF919F918F912F910F9010
S1130B600FBE0F901F9018951F920F920FB60F9201
S1130B7011242F933F934F935F936F937F938F939E
S1130B809F93AF93BF93EF93FF9384E992E00E9406
S1130B909304FF91EF91BF91AF919F918F917F91BA
S1130BA06F915F914F913F912F910F900FBE0F90D6
S1130BB01F90189584E992E00E94480421E0892B53
S1130BC009F420E0822F0895E4E9F2E0138212820E
S1130BD088EE93E0A0E0B0E084839583A683B78396
S1130BE087E792E09183808385EC90E09587848702
S1130BF084EC90E09787868780EC90E0918B808BE3
S1130C0081EC90E0938B828B82EC90E0958B848BCB
S1130C1086EC90E0978B868B118E128E138E148E39
S1130C20089508950E9426070E9411060E945F00FD
S1130C30C5E8D4E00E946F002097E1F30E94850488
S1130C40F9CFCF92DF92EF92FF920F931F93CF933E
S1130C50DF936C017A018B01C0E0D0E0CE15DF0593
S1130C6081F0D8016D918D01D601ED91FC91019037
S1130C70F081E02DC6010995892B11F02196EECF64
S1130C807E01C701DF91CF911F910F91FF90EF90EB
S1130C90DF90CF90089565E872E00C94F4038F928E
S1130CA09F92AF92BF92EF92FF920F931F93CF93B5
S1130CB0DF93CDB7DEB7A1970FB6F894DEBF0FBEB2
S1130CC0CDBF7C01FA01CB0119A2223008F42AE03D
S1130CD08E010F5D1F4F822E912CA12CB12CBF01D0
S1130CE0A50194010E946107F901CA01015011098B
S1130CF06A3010F4605D01C0695CD8016C93232BE9
S1130D00242B252B61F7B801C7010E94F403A19697
S1130D100FB6F894DEBF0FBECDBFDF91CF911F9108
S1130D200F91FF90EF90BF90AF909F908F90089598
S1130D302115310541F4DC01ED91FC910190F08124
S1130D40E02D642F09940C944F060F931F93CF93B7
S1130D50DF93EC010E9498068C01CE010E944B06A1
S1130D60800F911FDF91CF911F910F9108951F92D2
S1130D700F920FB60F9211242F933F938F939F934B
S1130D80AF93BF938091320390913303A0913403C6
S1130D90B09135033091310323E0230F2D3720F434
S1130DA00196A11DB11D05C026E8230F0296A11DC1
S1130DB0B11D209331038093320390933303A093A6
S1130DC03403B09335038091360390913703A09197
S1130DD03803B09139030196A11DB11D80933603E8
S1130DE090933703A0933803B0933903BF91AF9125
S1130DF09F918F913F912F910F900FBE0F901F9055
S1130E0018953FB7F8948091360390913703A091D9
S1130E103803B091390326B5A89B05C02F3F19F0BC
S1130E200196A11DB11D3FBFBA2FA92F982F882766
S1130E30820F911DA11DB11DBC01CD0142E0660FC1
S1130E40771F881F991F4A95D1F70895789484B520
S1130E50826084BD84B5816084BD85B5826085BDB2
S1130E6085B5816085BDEEE6F0E080818160808398
S1130E70E1E8F0E01082808182608083808181607B
S1130E808083E0E8F0E0808181608083E1EBF0E042
S1130E90808184608083E0EBF0E0808181608083E6
S1130EA0EAE7F0E0808184608083808182608083CF
S1130EB08081816080838081806880831092C100FA
S1130EC00895A1E21A2EAA1BBB1BFD010DC0AA1F87
S1130ED0BB1FEE1FFF1FA217B307E407F50720F09F
S1130EE0A21BB30BE40BF50B661F771F881F991F1A
S1130EF01A9469F760957095809590959B01AC0163
S1130F00BD01CF010895EE0FFF1F0590F491E02D70
S1130F100994FC0101900020E9F7809590958E0FCB
S10B0F209F1F0895F894FFCF10
S1130F281C7A502A367A622A633A7C1D1571551E3A
S1130F3823296267440F321F50362F2517603B2F31
S1130F48541A544833767726792D15575B1445621D
S1130F58770F592F2847694C1F416D1E7F6E11402A
S1130F68402D147156563368733D673C712C656B7C
S1130F78213F272F78142940663B56092A761A53AD
S1130F887B0A522F6C7F04424B1A75502F6F26161A
S1130F9862655C64305A0947245A5F045E481D4DF3
S1130FA8764E514B617F160860506458457210198B
S1130FB86D4A037E38630F45494C13613B546635CB
S1130FC81E2221694B663C795D663D6F4F630319A8
S1130FD8322130055E1C6A59232570330D46036E91
S1130FE81F076341735E445F72222240010B427EF5
S1130FF872252A0358237C324A5F192218196F0470
S113100874365A0B2079141A3E3C2D291421594B55
S113101859021C13602E772744573B21525E0E73E6
S113102800005C553A3E7A6A5D2756504B17395989
S113103807774B142A017853183E4E14197E792ADF
S11310484E2D081134262C0D68393E1D6000402FA2
S1131058321611583F6C4E65466C450C0050736B44
S113106847360539037B4838051E2D020B7C543F4F
S11310782F680A0B0C0D12130E0F101112131415EE
S1131088456C61707365642074696D65287573298E
S11310983A200000000000B40421067604FB04484A
S11310A804620454040D0A006E616E00696E6600E1
S10710B86F766600E5
S9030000FC
